:020000040800F2
:100000009805002005010008BD2800081F210008F0
:10001000ED270008B9090008F12B000800000000D6
:10002000000000000000000000000000C1280008DF
:10003000BB09000800000000BF280008792900085B
:100040001F0100081F0100081F0100081F01000810
:100050001F0100081F0100081F0100081F01000800
:100060001F0100081F0100081F0100081F010008F0
:100070001F0100081F0100081F0100081F010008E0
:100080001F0100081F0100081F0100081F010008D0
:100090001F0100081F0100081F0100081F010008C0
:1000A0001F010008DD2900081F0100081F010008CA
:1000B0001F0100081F0100081F0100081F010008A0
:1000C0001F0100081F0100081F0100081F01000890
:1000D0001F0100081F0100081F0100081F01000880
:1000E0001F0100081F0100081F010008DFF810D0E1
:1000F00000F050FC0048004751380008AFF3008082
:10010000980500200648804706480047FEE7FEE7BE
:10011000FEE7FEE7FEE7FEE7FEE7FEE7FEE7FEE7B7
:10012000DB290008ED000008202A04DB203A21FA30
:1001300002F00021704721FA02F3D040C2F1200200
:100140009140084319467047D2B201E000F8012BF4
:10015000491EFBD270470022F6E710B513460A4647
:1001600004461946FFF7F0FF204610BDF0B480EAC0
:100170000102D40F4200B2EB410F02D20246084600
:1001800011464A0042D0C30DDDB2C1F3C752AD1AC9
:10019000202D35DAC1F3160141F4000204B15242B8
:1001A000C5F1200602FA06F12A411044B3EBD05FF4
:1001B00023D0C4B1012DA0EBC35009DCF0BC4FF03B
:1001C000004202EAC352DBB200F5000000F0D6BAEA
:1001D000400000F1807000EBC350A0F1807040EA55
:1001E000D170490009E0490841EAC071A0EBC35051
:1001F00000F50000400800EBC350F0BC00F0B5BAB9
:100200006142012202EB4101001BF6E7F0BC70479E
:1002100081F00041AAE780F00040A7E780EA0102F0
:1002200010B502F00043400022D04A001FD0010E5A
:1002300001EB1261C0F35600C2F3560240F4000015
:1002400042F40002A0FB022000047F39140400D015
:10025000401C50EA124001D44000491EC2B20C06B4
:1002600004EBD010401C4008802A02D003E000209C
:1002700010BD20F00100002900DA0020184310BD55
:1002800030B480EA010202F0004530F0004221F073
:10029000004013D090B1C30DD40DC2F31601C0F3CA
:1002A0001600E41A41F4000140F400027D3491424A
:1002B00001D3641C00E04900002C02DA30BC0020AD
:1002C00070474FF400000023914201D3891A034381
:1002D00040084FEA4101F7D151B1914202D14FF0AC
:1002E000004105E002D24FF0010101E06FF0010191
:1002F00003EBC450284430BC00F037BA420005D0AC
:10030000C0F3C7525242914201DC0020704700EB1B
:10031000C15070472DE9FE4F804681EA0300C00FAF
:100320000C46009021F0004123F00045B8EB02009C
:10033000A94105D24046214690461C460B4602463E
:1003400023F00040104347D0270DC7F30A00C3F342
:100350000A510290401A019040286BDAC3F313004F
:1003600040F4801B0098924620B10023D2EB030A90
:1003700063EB0B0B01985946C0F14002504600F068
:10038000D3F906460D4650465946019A00F0DBF96E
:1003900010EB08006141002487EA115284EAE773F8
:1003A0001A4340D0009A62B3019A012A4FEA0752D9
:1003B00015DC001B61EB02014FF0004202EA07521C
:1003C000CDE90042001C41F5801132462B4600F079
:1003D00012FA03B0BDE8F08F40462146F9E7001B52
:1003E00061EB0201001C41F5801300185B412018ED
:1003F000A2F5001747EB030140EAD570B6196D412D
:1004000011E06D084FEA360645EAC0754FEA07521B
:10041000001B61EB0201001C41F5801149084FEA05
:1004200030000019514132462B4603B0BDE8F04F71
:1004300000F0D2B90098012240000023D0EB020264
:1004400063EBE073009821464FEAE074B8EB0000DC
:1004500061EB0401E9E783F000435BE781F00041D1
:1004600058E72DE9FE4F81EA030404F0004421F02F
:10047000004100944FF0000B23F0004350EA0104C8
:100480005ED052EA03045BD0C3F30A54C1F30A55A9
:100490002C44A4F2F3340194A0FB0254C1F31301E1
:1004A00041F48011C3F3130343F4801301FB0244AE
:1004B00000FB034E840A970A44EA815447EA8357B3
:1004C000A4FB076802958D0A05FB07854FEA932C6C
:1004D00004FB0C542705029D4FEA065847EA1637DD
:1004E000B5EB08056EEB070C870E920E47EA8117F5
:1004F00042EA8312A7FB0201B6EB0B0164EB000496
:100500002B0D43EA0C335E1844EB1C50DA4651467F
:10051000E7FB0201C5F313044FEA0B3343EA14531C
:100520004FEA0432019C43EA0603A4F10C0402944E
:10053000009CCDE900B400F05EF903B0BDE8F08F97
:1005400000200146F9E72DE9F04D81EA030404F0AB
:10055000004B21F0004514464FF0000A23F0004103
:1005600050EA050220D054EA01021DD0C5F30A5713
:100570000246C5F31303C1F31300C1F30A5640F456
:10058000801543F48013A7EB0608101BD64608F22B
:10059000FD3873EB050002D308F1010801E0921861
:1005A0005B41B8F1000F03DA00200146BDE8F08D91
:1005B00000204FF48011064684460EE0171B73EBB3
:1005C000050705D3121B63EB050306434CEA010C38
:1005D00049084FEA300092185B4150EA0107EDD11B
:1005E00052EA030012D082EA040083EA05010843BC
:1005F00005D0101BAB4106D20122002306E00022E9
:100600004FF0004302E06FF0010253101AEB0600B6
:100610004CEB085110EB0A0041EB0B01BDE8F04D2B
:1006200000F0DAB8C10F80EAE0700844CA079623E8
:10063000002100F0A3B800F0004220F00040C10DFE
:10064000C0F3160040F400007F2901DA0020704753
:10065000962903DCC1F19601C84001E09639884033
:10066000002AF4D04042704700F0004230F00040D1
:100670000AD0C10D01F56071C0F3160042EA0151C4
:10068000C20840071143704700200146704701F03F
:10069000004330B421F0004150EA010206D00A0DB7
:1006A000A2F56072C1F31301002A02DC30BC002005
:1006B0007047440F44EAC104C100E01830BC00EBAD
:1006C000C25000F052B82DE9F05F05460020924676
:1006D0009B4688460646814640241BE02846414604
:1006E00047462246FFF720FD53465A46C01A91411D
:1006F00010D311461846224600F016F82D1A67EB63
:1007000001084F4622460120002100F00DF817EBAA
:1007100000094E41201EA4F10104DFDC48463146A9
:100720002A464346BDE8F09F202A04DB203A00FA1F
:1007300002F1002070479140C2F1200320FA03F338
:10074000194390407047202A06DBCB17203A41FA24
:1007500002F043EAE07306E041FA02F3D040C2F14E
:10076000200291400843194670470029A8BF7047EE
:10077000401C490008BF20F00100704710B4B0FAD7
:1007800080FC00FA0CF050EA010404BF10BC704772
:1007900049B1CCF1200421FA04F411FA0CF118BF8C
:1007A000012121430843A3EB0C01CB1D4FEA00615B
:1007B0004FEA102042BF002010BC704700EBC3502E
:1007C00010440029A4BF10BC7047401C490008BF5A
:1007D00020F0010010BC704710B5141E73F1000426
:1007E00008DA401C41F1000192185B411A4301D123
:1007F00020F0010010BD2DE9F04D92469B4611B14D
:10080000B1FA81F202E0B0FA80F220329046FFF7AE
:100810008BFF04460F4640EA0A0041EA0B015346AB
:100820005A46084313D0114653EA010019D0C8F1C3
:1008300040025046FFF778FC05460E4650465946A2
:100840004246FFF771FF084305D0012004E020462F
:100850003946BDE8F08D0020054346EAE0762C439A
:1008600037430A986305E40AA0EB08000022FD0A5A
:1008700044EA47540A3002D500200146E9E7010561
:1008800010196941DDE9084500196941BDE8F04DDD
:10089000A2E770B521F0004303430CD0C1F30A5521
:1008A0000024D5EB040564EB0403D617AD1AB3415D
:1008B00002DB0020014670BD201841EB025170BDE3
:1008C0002DE9F04D00231A461B1A8A4103DB002054
:1008D0000146BDE8F08DC1F30A52C1F3130141F4A2
:1008E00080154FF0000BD10702D100186D41521E48
:1008F0000027044640F2FF11384601EB620A3E46EB
:100900008046024600204FF48011FFF70DFCC2190B
:100910007141BB1846EB0100B4EB030C75EB000C06
:1009200004D3E41A65EB000517460E46241908F1B6
:1009300001006D4180463428E3DDF91946EB0600DD
:10094000091BA84103D24FF0FF32134601E00022F9
:1009500013461BEB070046EB0A51BDE8F04DFFF7CD
:100960003BBF000030B5041E71F1000404DB4FF002
:100970000044404264EB0101141E73F1000405DBE6
:100980001C464FF00043524263EB04038B4208BF06
:10099000824230BD064C074D06E0E06840F001039E
:1009A00094E8070098471034AC42F6D3FFF7A2FB57
:1009B000E0390008003A0008FEE7704772B6FEE72B
:1009C0002DE9F74F8CB00E4605464FF0FF310E98DB
:1009D000FFF794FCDFF8409400904C46D9F80810DB
:1009E000D9F80000FFF71AFCE16807466068FFF7D6
:1009F00015FC3946FFF70CFC0121FFF77FFC08903E
:100A0000E168A068FFF70AFC616807462068FFF705
:100A100005FC3946FFF7AAFB0121FFF76FFC09909F
:100A2000A168A068FFF7FAFB616807466068FFF7F6
:100A3000F5FB3946FFF79AFB0121FFF75FFC4FF00A
:100A40007E5B5946FFF7E7FB0A90F44FB7F90400C5
:100A5000FFF7E8FD0146FFF7E1FB8046B7F902002A
:100A6000FFF7E0FD0146FFF7D9FB0446B7F90000A8
:100A7000FFF7D8FD0146FFF7D1FB2146FFF776FBD4
:100A80004146FFF773FBFFF7EFFD02F0F5FE02466C
:100A90000B460020E249FFF756FDFFF7F8FDA9F1EC
:100AA0000C040746A060B5F90000FFF7BBFD39460E
:100AB000FFF7B4FB0590B5F90200FFF7B3FD394627
:100AC000FFF7ACFB0690B5F90400FFF7ABFD394624
:100AD000FFF7A4FB079009990798FFF79FFB0A9976
:100AE00007460698FFF79AFB3946FFF791FB0390FC
:100AF0000A990598FFF792FB089907460798FFF7B0
:100B00008DFB3946FFF784FB049008990698FFF7A0
:100B100085FB099907460598FFF780FB3946FFF7E3
:100B200077FB0590039861688846FFF777FBBD4F18
:100B30003968FFF71BFB386004984146FFF76EFBEE
:100B40007968FFF713FB786005984146FFF766FB6D
:100B5000B968FFF70BFBB860039920688246FFF77E
:100B60005DFB8046B5F90600FFF75CFDAE4C214603
:100B7000FFF754FB4146FFF7F9FA3968FFF7F6FA39
:100B8000019004995046FFF749FB8046B5F90800EB
:100B9000FFF748FD2146FFF741FB4146FFF7E6FA24
:100BA0007968FFF7E3FA029005995046FFF736FBA4
:100BB0008046B5F90A00FFF735FD2146FFF72EFB09
:100BC0004146FFF7D3FAB968FFF7D0FA03900399CB
:100BD0004C46D9F80C00FFF721FB02998046A0682B
:100BE000FFF71CFB07466068019980F00040FFF7A3
:100BF00015FB3946FFF70CFB4146FFF709FB00994F
:100C0000FFF70CFB03998246A068FFF707FB0299E8
:100C10008046E068FFF702FB019907462068FFF76E
:100C2000FDFA3946FFF7F4FA4146FFF79FFA0099BB
:100C3000FFF7F4FA039981466068FFF7EFFA02992B
:100C400007462068FFF7EAFA01998046E068FFF757
:100C5000E5FA4146FFF78AFA3946FFF7D9FA0099D3
:100C6000FFF7DCFA039980462068FFF7D7FA01996D
:100C70000390A068FFF7D2FA029907466068FFF771
:100C8000CDFA3946FFF7C4FA0399FFF76FFA0099D6
:100C9000FFF7C4FA074620685146FFF767FA20605D
:100CA00060684946FFF762FA6060A0684146FFF756
:100CB0005DFAA060E0683946FFF758FAE060E16845
:100CC000E068FFF7ABFAA1688146A068FFF7A6FAD3
:100CD000616880466068FFF7A1FA216807462068CE
:100CE000FFF79CFA3946FFF741FA4146FFF73EFA13
:100CF0004946FFF73BFAFFF7B7FC02F0BDFD02469D
:100D00000B4600204649FFF71EFCFFF7C0FC0746D4
:100D100020683946FFF782FA206060683946FFF79D
:100D20007DFA6060A0683946FFF778FAA060E06855
:100D30003946FFF773FAE060B5F90A00FFF772FC75
:100D40003A49FFF76BFA5D46A84202DC10F1814F89
:100D500006D90E99FFF762FAB168FFF707FAB0609B
:100D600060680121FFF7CAFAE168FFF757FA074602
:100D700020680121FFF7C2FAA168FFF74FFA394650
:100D8000FFF746FAFFF770FC02F012FADFF8A0A0B6
:100D90004FF000594A465346FFF763FBFFF777FCD5
:100DA0007060A0680121FFF7A9FAA168FFF736FA81
:100DB000074660680121FFF7A1FA6168FFF72EFA84
:100DC0002946FFF728FA3946FFF722FAFFF74CFCCD
:100DD000054620680F460121FFF790FA6168FFF78A
:100DE0001DFA8046A0680121FFF788FAE168FFF745
:100DF00015FA4146FFF7BAF9FFF736FC2A463B469B
:100E000002F01EFC4A465346FFF72BFBFFF73FFC60
:100E100030600FB0BDE8F08F6C000020740100203E
:100E20000000F03F8C0100202E9E8B3AF6FF793DAA
:100E3000DCA54C4070B5044600F0FEF80546601C89
:100E400002D004480078044400F0F6F8401BA042A9
:100E5000FAD370BD000000202DE9F84FDFF8B891FB
:100E60000024A9F1040B23460F2709F1040AABF172
:100E7000040EC9E00125A5402A40AA427DD1674E53
:100E8000D1F804C0ACEB0608B44532D014DCBCF198
:100E9000030F3AD009DCBCF1000F2AD0BCF1010FDE
:100EA0001CD0BCF1020F31D11DE0BCF1110F17D0E5
:100EB000BCF1120F2AD119E0B8F5881F19D006DC51
:100EC000B8F5803F15D0B8F5801F1FD111E0B8F5F7
:100ED000001F0ED0B8F5041F18D10AE0CB6815E04A
:100EE000CB681B1D12E0CB6808330FE0CB680C33D6
:100EF0000CE08B682BB1012B4FF0080303D0456148
:100F000004E0042302E0056100E00023FF2A01D889
:100F1000064601E000F104064FEA840501D9A5F177
:100F20002005D6F8008007FA05FC28EA0C0803FA29
:100F300005F548EA0508C6F800804D68ED0062D561
:100F4000374DAE6946F00106AE61AD6924F0030687
:100F500005F001050095334D06EB050CDCF8085053
:100F6000A607360F07FA06F825EA0805DFF8B88065
:100F7000404503D14FF0000817E044E0DFF8AC80B3
:100F8000404502D14FF001080FE0DFF8A480404552
:100F900002D14FF0020808E0DFF89880404502D106
:100FA0004FF0030801E04FF0040808FA06F848EA99
:100FB0000508CCF808804D68D9F80060ED024D4670
:100FC00001D5164300E096432E604D68DAF80060C4
:100FD000AD02554601D5164300E096432E604D689C
:100FE000DBF80060AD035D4601D5164300E0964393
:100FF0002E604D68DEF80060ED03754601D516439E
:1010000000E096432E60641C0D682A46E5407FF49C
:1010100031AFBDE8F88F0000080401400000111056
:10102000001002400000014000080140000C014097
:101030000010014000140140014880687047000022
:101040000000002070B5040025D094F83D00002574
:1010500020B984F83C50204600F078FA242084F827
:101060003D002068016821F00101016020680168ED
:1010700041F4004101602068016821F400410160F1
:1010800000F0C0FB4D4A6168914201D84C4900E034
:101090004C49884201D2012070BD4B492368B0FB06
:1010A000F1F15E6826F03F060E435E60636893428E
:1010B00006D94FF4967359434FF47A73B1FBF3F1A9
:1010C0002368491C1E6A26F03F0631431962616895
:1010D000914210D84900401EB0FBF1F2521CC2F3FD
:1010E0000B02042A01D2042022E0B0FBF1F0401CE4
:1010F000C0F30B001CE0A268F2B301EBC10303EBE9
:101100000116431EB3FBF6F35B1C43F480431B053F
:1011100049D092B301EBC10202EB0111401EB0FBBA
:10112000F1F0401CC0F30B0040F4804040F400405C
:101130002168CA694CF6FF739A431043C861D4E929
:10114000071001432068026822F0C00211430160C9
:10115000D4E9030101432068826848F2FF339A43CF
:1011600011438160D4E9050108432168CA6822F06F
:10117000FF021043C86001E00EE016E0206801683D
:1011800041F0010101602564202084F83D002563C1
:1011900084F83E50002070BD01EB4106431EB3FBB6
:1011A000F6F35B1CB3E70120C2E701EB4101401EEF
:1011B000B0FBF1F0401CC0F30B00B7E7A0860100C4
:1011C00080841E0000093D0040420F002DE9FF4FC2
:1011D00083B00025DDE910799A4693460446DDF890
:1011E00048800095FFF728FF064694F83D00202828
:1011F0007CD11923012285492046009601F0A6F8EA
:101200000028F5D194F83C0001286FD0012084F823
:101210003C0020680168C90703D1016841F0010161
:1012200001602068016821F400610160222084F8D7
:101230003D00402084F83E0025646762A4F82A90AF
:10124000608D20857248E062CDE9008653465A469B
:101250002046049900F07CFF00287DD1208DDFF826
:10126000B491202768B1012814D0022820680168B1
:101270001ED041F48061016020684169806900905E
:10128000B6E02068416981690091016841F400710C
:101290000160ADE02068016821F48061016072B6F0
:1012A0002068416981690091016841F400710AE098
:1012B00041F40061016072B6206841698169009162
:1012C000016821F48061016062B691E0032868D86A
:1012D00001280CD0022843464FF000024946204620
:1012E00000960FD001F032F8B0BB10E08BE0324630
:1012F0004146204601F0D0F870BB20680069616A61
:1013000008706CE001F022F830BB72B634E020685F
:10131000016821F48061016072B620680069616A29
:101320000870606A401C6062208D401E2085608DC0
:10133000401E6085384846F2A8110068B0FBF1F005
:10134000C0EBC00000EB80000090401E009008D071
:1013500020684069C04300E029E040070CD50098B0
:10136000F3E744F8305F6773A573206940F020000D
:10137000206162B625731AE02068016841F40071AB
:10138000016020680069616A0870606A401C6062E0
:10139000218D491E2185618D491E618562B62168B6
:1013A0001BE032464146204601F076F818B1012094
:1013B00007B0BDE8F08F20680069616A0870606A54
:1013C000401C6062218D491E2185618D491E618509
:1013D00021684A69D24352070AD409690170606AD8
:1013E000401C6062208D401E2085608D401E6085FF
:1013F000208D00287FF46AAF84F83D7084F83E5059
:1014000084F83C50D4E70220D2E70000020010002C
:101410000000FFFF040001000C0000202DE9FF4F39
:1014200083B09A46DDE9119793460446DDF8408083
:10143000FFF702FE054694F83D0020287FD11923CE
:10144000012240492046009500F080FF002876D117
:1014500094F83C00012872D0012084F83C002068F8
:101460000168C90703D1016841F0010101602068EA
:10147000016821F400610160212084F83D004020D2
:1014800084F83E0000262664C4F82480A4F82A903C
:10149000608D20852C48E062CDE9007553465A46A0
:1014A0002046049900F0D2FE70B930E02A46394651
:1014B000204601F029F858B1206C042804D1206896
:1014C000016841F400710160012007B0BDE8F08FB0
:1014D000606A216800780861606A401C6062218D42
:1014E000491E89B22185628D521E62852268536928
:1014F000DB435B070BD469B100781061606A401C64
:101500006062208D401E2085608D401E6085208D8C
:101510000028CBD12A463946204600F0EBFE0028B1
:10152000CAD154F83D0B016841F4007101602020DC
:1015300004F81E09E67766770020C6E7FFE7022079
:10154000C3E70000020010000000FFFF10B586B0E6
:101550000021009101910291039100680F49884296
:101560001AD10F4CA06940F00800A061A06969463B
:1015700000F008000490C020009012200190032089
:1015800003900848FFF768FCE06940F40010E06150
:10159000E06900F40010049006B010BD0054004053
:1015A00000100240000C014002488168027811449A
:1015B0008160704700000020074810B5016841F0C5
:1015C00010010160032000F075F80F2000F006F80C
:1015D00000F024F8002010BD0020024070B50D4D31
:1015E00004464FF47A712878B1FBF0F00A49096893
:1015F000B1FBF0F000F0DCFA48B9102C07D2002261
:101600002146501E00F036F800206C6070BD0120AD
:1016100070BD0000000000200C0000200C4808B540
:10162000816941F001018161816901F0010100914D
:10163000C16941F08051C161C06900F080500090E3
:101640000448416821F0E06141F00071416008BD4B
:101650000010024000000140002809DB00F01F02DA
:10166000012191404009800000F1E020C0F8001104
:1016700070470000F0B40E4B1B680C46C3F3022306
:10168000C3F10705042D00D90425191D072901D22E
:10169000002300E0DB1E012606FA05F1491E214069
:1016A00099409E40761E16403143F0BC01F0C6BA08
:1016B0000CED00E0064900F0070208684FF6FF0352
:1016C000184040EA0220034A1043086070470000B7
:1016D0000CED00E00000FA052DE9F0470F4605008B
:1016E00061D0434E306800F00700B84209D230683C
:1016F00020F0070038433060306800F00700B8423F
:1017000051D128683B4C810712D5400703D560684A
:1017100040F4E06060602878000703D5606840F41A
:10172000605060606068A96820F0F0000843606065
:101730002878C00728D06868012810D021680228BE
:1017400010D0890700292EDA616821F003010143D6
:101750006160FFF771FC804641F288390DE0216835
:101760008903EFE78901EDE7FFF766FCA0EB0801CD
:10177000494502D90320BDE8F0876068696800F038
:101780000C00B0EB810FEFD1306800F00700B842D9
:101790000BD9306820F0070038433060306800F023
:1017A0000700B84201D00120E5E72878400705D5B9
:1017B0006068E96820F4E06008436060287800070A
:1017C00006D56068296920F4605040EAC100606075
:1017D00000F038F86168084AC1F30311515CC84051
:1017E0000649086006480068FFF7F8FE0020C2E7D7
:1017F0000020024000100240D63800080C000020F3
:10180000040000200448054900684968044AC1F3FF
:101810000221515CC84070470C00002000100240BB
:10182000E63800080448054900684968044AC1F3DD
:10183000C221515CC84070470C00002000100240DB
:10184000E63800080E4A51680E4801F00C03042BDC
:1018500011D0082B0FD10C48C1F38343C903C05CDE
:101860000AD55168084AC1F34041921E515C054AAD
:101870005043B0FBF1F07047044948437047000003
:101880000010024000127A00C638000800093D002E
:101890002DE9F84F040070D02078C04DC00749D022
:1018A0006868C0F38100012807D06868C0F3810030
:1018B000022809D16868C00306D52868800339D595
:1018C00060680028E7D035E06068B0F5803F0BD055
:1018D00010B1B0F5A02F11D0286820F48030286016
:1018E000286820F4802002E0286840F480302860D6
:1018F000606890B1FFF7A0FB06460AE0286840F454
:1019000080202860F0E700BFFFF796FB801B64286B
:1019100073D828688003F7D50CE0FFF78DFB0646E7
:1019200005E000BFFFF788FB801B6428F0D828681B
:101930008003F7D420789A4E80074FF001094FF0CA
:10194000000839D5686810F00C0F07D06868C0F33C
:101950008100022809D16868C00306D4286880077E
:1019600014D52069012808D110E02069B0B1C6F86B
:101970000090FFF761FB074605E00AE1FFF75CFB1B
:10198000C01B0228C4D828688007F7D52868616979
:1019900020F0F80040EAC10028600DE0C6F80080A1
:1019A000FFF74AFB074604E0FFF746FBC01B02288F
:1019B00023D828688007F7D4207800072CD57948E9
:1019C000A169D9B1C0F80090FFF736FB074604E0E3
:1019D000FFF732FBC01B02280FD8686A8007F7D5D3
:1019E00071484FF4FA510068B0FBF1F0009000BF6D
:1019F0000098411E0091FAD20EE080E0C0F800800D
:101A0000FFF71AFB074604E0FFF716FBC01B02288E
:101A100075D8686A8007F7D42078400760D5E869F0
:101A20000027C00008D4E86940F08050E861E86908
:101A3000012700F0805000905C480168C90513D46C
:101A40000168834641F480710160FFF7F5FA824630
:101A500006E000BFFFF7F0FAA0EB0A0064284ED8BA
:101A6000DBF80000C005F5D5E06801280AD008B110
:101A7000052813D0286A20F001002862286A20F087
:101A8000040002E0286A40F001002862E06841F2A8
:101A9000883B98B1FFF7D0FA82460BE0286A40F005
:101AA00004002862EEE700BFFFF7C6FAA0EB0A01C8
:101AB00059455AD8286A8007F6D50CE0FFF7BCFADA
:101AC000824605E0FFF7B8FAA0EB0A0159454CD869
:101AD000286A8007F6D41FB1E86920F08050E861D9
:101AE000E06988B36968C1F38101022944D0022802
:101AF000C6F8608004D0FFF79FFA044638E034E06F
:101B0000FFF79AFA074604E0FFF796FAC01B02288F
:101B10002BD828688001F7D4206AB0F5803F05D122
:101B20006868A16820F4003008436860D4E90801BF
:101B30000843696821F4741108436860C6F860902E
:101B4000FFF77AFA044606E025E000BFFFF774FAD3
:101B5000001B022809D828688001F7D51BE000BFC8
:101B6000FFF76AFA001B022802D90320BDE8F88FAC
:101B700028688001F4D40EE00128F7D06868226A52
:101B800000F48031914204D1616A00F470108842FF
:101B900001D00120EAE70020E8E700000010024041
:101BA00000004242800442420C00002000700040CD
:101BB00010B5401EB0F1807F01D3012010BD4FF061
:101BC000E02460610F21601701F038F80020A06167
:101BD00007202061002010BD7047704770B590F855
:101BE0003C20012A26D0012480F83C40022280F8C3
:101BF0003D2003685A689D6822F070060A683243E7
:101C00005A600D4B02689A4208D0B2F1804F05D05D
:101C10000A4B9A4202D00A4B9A4204D1496825F0F5
:101C200080031943916080F83D40002180F83C100A
:101C3000084670BD022070BD002C01400004004029
:101C40000008004010B5040003D094F83D0010B126
:101C500007E0012010BD002084F83C00204600F081
:101C60001FF8022084F83D00211D206800F0BCFE12
:101C7000012084F8460084F83E0084F83F0084F890
:101C8000400084F8410084F8420084F8430084F85E
:101C9000440084F8450084F83D00002010BD000099
:101CA00008B500680B49884212D10B48816941F49C
:101CB000006181618069002200F40060009011469B
:101CC0001920FFF7D7FCBDE808401920FFF7C4BC76
:101CD00008BD0000002C01400010024090F83D10AB
:101CE000012901D001207047022180F83D100168D0
:101CF000CA6842F00102CA6000680B49884208D0F5
:101D0000B0F1804F05D00949884202D00849884285
:101D100004D1816801F00701062903D0016841F070
:101D20000101016000207047002C014000040040C8
:101D30000008004070B5044690F83C0000250128DA
:101D400017D0012684F83C60022084F83D0020680A
:101D5000826822F0770222F47F428260086850286D
:101D600038D00DDC20284FD005DC90B3102811D1DD
:101D70004AE0022070BD302846D040280AD13BE01E
:101D800060282FD070280DD0B0F5805F03D0B0F55B
:101D9000005F12D0012584F83D60002084F83C00EB
:101DA000284670BDCB68D1E90121206800F052FEC1
:101DB0002068816841F0770109E0CB68D1E9012111
:101DC000206800F047FE2068816841F4804181600E
:101DD000E1E719E0CA684968206800F04DFE50212B
:101DE000206806E0CA684968206800F056FE602155
:101DF000206800F039FECEE7CA684968206800F024
:101E00003BFE40212068F4E7226801461046F0E7D7
:101E1000704770B50446006801694FF00005C9437A
:101E2000890715D4C168C943890711D4E91E016126
:101E300001202077206880698007204602D0FFF7C4
:101E4000E7FF04E000F098F8204600F096F82577C8
:101E500020680169C943490717D4C168C9434907C4
:101E600013D46FF00401016102202077206880699B
:101E700010F4407F204602D0FFF7CAFF04E000F0D4
:101E80007BF8204600F079F8257720680169C9437E
:101E9000090716D4C168C943090712D46FF00801B5
:101EA0000161042020772068C0698007204602D0A5
:101EB000FFF7AEFF04E000F05FF8204600F05DF8A9
:101EC000257720680169C943C90617D4C168C94389
:101ED000C90613D46FF01001016108202077206833
:101EE000C06910F4407F204602D0FFF791FF04E064
:101EF00000F042F8204600F040F82577206801699C
:101F0000C943C90708D1C168C943C90704D1891E9B
:101F10000161204600F032F820680169C9430906D2
:101F200009D4C168C943090605D46FF08001016175
:101F30002046FFF751FE20680169C943490609D4CC
:101F4000C168C943490605D46FF0400101612046CC
:101F500000F02CF820680169C94389060BD4C168D8
:101F6000C943890607D46FF0200101612046BDE80E
:101F70007040FFF732BE70BD70477047074910B51B
:101F800088420AD100F034FC054A06490648FEF7AB
:101F900017FDBDE8104000F095BC10BDD800002032
:101FA000A69B443B8001002074010020704770B55F
:101FB000040004D094F84100002510B106E001208F
:101FC00070BD84F84050204600F024F8242084F8A6
:101FD00041002068C16821F40051C160204600F032
:101FE0006FFD2068016921F4904101612068416919
:101FF00021F02A0141612068C16841F40051C160AB
:102000006564202084F8410084F842006563002064
:1020100070BD000030B585B0002400940194029496
:10202000039400681449884224D11448816941F41A
:1020300080418161816901F480410491816941F0AD
:102040000401816180690E4D00F0040004904FF49A
:1020500000700090022001900320039069462846FA
:10206000FEF7FAFE2815CDE90004694628460294D9
:10207000FEF7F2FE05B030BD00380140001002400E
:10208000000801402DE9F843044690F841001F463E
:1020900016460D46202802D00220BDE8F8837DB107
:1020A00076B100206064212084F84100FEF7C4FF6F
:1020B000A6848046E684A068B0F5805F02D003E085
:1020C0000120EAE7206910B12E4600250EE0002627
:1020D0000CE08021204600F04FFDA0B9AEB116F80B
:1020E000010B21684860E08C401EE084E08C434690
:1020F0004FF0000200970028EBD14FF0400120463E
:1021000000F03AFD30B10320C7E735F8020BC0F309
:102110000800E6E7202084F841000020BDE7FEE744
:1021200001684A69D24352050FD46FF480624A6154
:10213000002140F8301F202242738173026942F06F
:102140000402026101730120704700207047000003
:102150002DE9F84F0446006889460B9D01689846B2
:10216000174641F4806101602068016841F4807184
:10217000016000954FF0011B0022594620460A9B42
:1021800000F0E4F84FF4007A40B120680068C00520
:1021900001D5C4F840A00320BDE8F88F216809F0FC
:1021A000FE0008612B46284920460A9A00F016F9DD
:1021B000F0BB20684169806900902A4620460A9950
:1021C00000F0A2F940B1206C04283AD120680168DF
:1021D00041F40071016034E0FEB2B8F1010F09D0A2
:1021E0002168380A08612A4620460A9900F08CF9CD
:1021F0000028E8D1206806612A4620460A9900F0A6
:1022000083F90028DFD12068016841F48071016002
:1022100000950022594620460A9B00F097F80028B6
:10222000B3D1216809F0FF0040F00100086100E02F
:1022300007E02B46044920460A9A00F0CFF8002810
:10224000AAD00120A8E70000020001002DE9F84310
:10225000044600680D46DDE9089701689846164671
:1022600041F4807101604B4600224FF0011120467D
:10227000009700F06BF848B120680068C00502D5EF
:102280004FF4007020640320BDE8F883216805F056
:10229000FE0008613B464A461549204600F09EF87C
:1022A00088B920684169806900903A4649462046CD
:1022B00000F02AF948B1206C042804D12068016894
:1022C00041F4007101600120DEE7F5B2B8F1010FC1
:1022D00009D02168300A08613A464946204600F094
:1022E00013F90028E7D1206805610020CCE7000041
:1022F0000200010070B516460D4604461EE0204659
:10230000FFF70EFF08B1012070BD681C16D0FEF764
:1023100093FE801BA84200D885B920684069C0435D
:1023200040070BD5002044F8300F20216173A073C3
:10233000216941F0200121612073E4E720684069B0
:10234000C0434007DBD4002070BD00002DE9F047FA
:10235000984617460D460446C1F30746DDF820901F
:102360002AE000BFB8F1FF3F26D0FEF765FEA0EBE4
:102370000901414502D8B8F1000F1DD12068012E96
:1023800016D0806925EA00000004000C12D000205D
:10239000B84211D1002044F8300F20216173A0739E
:1023A000216941F02001216120730120BDE8F087FF
:1023B0004069E7E70120EBE72068012E0AD0806939
:1023C00025EA00000004000C06D00020B842C9D065
:1023D0000020EBE74069F3E70120F7E72DE9F0473C
:1023E000984616460D4604464FF000094FF0200A65
:1023F000C1F3074723E020684069C043400515D476
:102400002068016841F40071016021686FF4806008
:102410004861C4F8309084F83DA084F83E90216C67
:1024200041F00401216484F83C9021E0701C06D046
:10243000FEF702FEA0EB0800B04203D816B1012F50
:102440001FD021E02068012F15D0806925EA000007
:102450000004000C18D000BF44F8309F84F80DA091
:1024600084F80E90216941F02001216184F80C90DC
:102470000120BDE8F087406925EA00000004000C57
:10248000EAD12068406901E02068806925EA0000FF
:102490000004000CAFD1ECE72DE9F0410025904697
:1024A0000E460446202728E04069C043C0060CD4ED
:1024B00054F8301B6FF01000486144F810596777EA
:1024C000A577206A2062257714E0FEF7B5FDA0EB22
:1024D0000800B04200D886B920684069C043400671
:1024E0000BD544F8305F6773A573206940F0200076
:1024F000206125730120BDE8F08120684169C9434E
:102500004906D1D40020F6E770B516460D460446BC
:102510001EE02046FFF704FE08B1012070BD681CD4
:1025200016D0FEF789FD801BA84200D885B9206827
:102530004069C04300060BD5002044F8300F20212D
:102540006173A073216941F0200121612073E4E7E8
:1025500020684069C0430006DBD4002070BD000045
:1025600010B51E48FEF76EFD80216B2000F096F836
:1025700000216B2000F092F8032000F05AF80020B0
:1025800000F052F8322000F071F80021382000F0FD
:1025900085F800216A2000F081F80021232000F056
:1025A0007DF88021372000F079F8752000F022F8BE
:1025B000044601460AA000F01DFB682C01D0012052
:1025C00010BD01216B2000F069F800216C2000F0A3
:1025D00065F8322000F04AF8002010BD8400002089
:1025E0000D0A4D5055363035303A30782532780D59
:1025F0000A0000001FB500218DF80C1040F6FF7393
:10260000012203A98DE80E0013460246D121054898
:10261000FEF7DCFD6420FEF70DFC9DF80C0004B015
:1026200010BD000084000020C006010E1C2000F038
:1026300035B8C006010E1B2000F030B8BC2801D30D
:10264000012110E0622801D302210CE02A2801D3E5
:10265000032108E0142801D3042104E00A2801D34F
:10266000052100E006211A2000F018B810B5044634
:102670004FF47A70844201D9044602E0042C00D25F
:102680000424B0FBF4F0401EC1B2192000F006F89B
:102690006008BDE81040FFF7D1BF00001FB540F64D
:1026A000FF738DF80C10012203A98DE80E0013466C
:1026B0000246D0210448FEF7B1FE6420FEF7BAFBC3
:1026C00004B0002010BD0000840000200D4808B5B3
:1026D000816941F020018161816901F0200100914F
:1026E000816941F004018161816901F00401009177
:1026F000816941F008018161806900F00800009063
:1027000008BD0000001002400D4810B50B490160E3
:102710000C49416000214FF480428160C0E90312FE
:1027200041618161C1610162FEF78CFC002803D028
:10273000BDE81040FEF742B910BD00000054004053
:1027400084000020A086010010B586B0002418483F
:102750000094019402940394049414490594016034
:1027600040F2CF21C0E9011440F22B11C0E903145B
:102770008021C0E90541FFF765FA08B1FEF71EF9AF
:102780004FF48050009069460948FFF7D3FA08B12A
:10279000FEF714F9049404A905480594FFF71EFAFE
:1027A000002801D0FEF70AF906B010BD002C014048
:1027B000D80000200C4810B50A4901604FF4E131FF
:1027C0004160002181600C22C160C0E90412816176
:1027D000C161FFF7ECFB002803D0BDE81040FEF715
:1027E000EDB810BD0038014020010020FEE70000D8
:1027F0002DE9F04786B0062503A8CDE9000540F68F
:10280000FF7401233B22D12102942748FEF7DEFC0E
:102810000DF11200CDE9000501234322D1210294DC
:102820002148FEF7D3FCDFF88490002409F1040A64
:1028300001E0032C14D2D9F800004D4630F9140001
:10284000FDF7F0FE014604EB44020AEBC200064627
:1028500000F0D4FFB068FDF7EEFE2D6825F81400F7
:10286000022C1AD9E01EC6B2114F35F91400FDF73B
:10287000D9FE3946FDF7D2FCDFF8388007460E490D
:1028800058F82600FDF7CAFC3946FDF76FFC48F8FA
:102890002600FDF7D0FE25F81400641CE4B2062CD7
:1028A000C7D306B0BDE8F0878400002010000020E8
:1028B0009A99193E680100209A99593FFEE770479E
:1028C0007047000070B5284D284E86B06C463146E2
:1028D0002868FDF7A3FCFDF7AEFEADF80400314615
:1028E0006868FDF79BFCFDF7A6FEADF806003146D3
:1028F000A868FDF793FCFDF79EFE4042ADF8080086
:102900000020ADF80A00ADF80C00194800780C2240
:102910000002ADF80E004AF6AA20ADF800004FF410
:102920008670ADF8020054208DF810000220151DAD
:102930000EE02618235C71784B40594071704B4073
:1029400023540B44A118801C0E79C0B233440B7180
:10295000A842EED34FF6FF7321460648521DFFF7FB
:1029600091FB06B070BD0000800100200000C8424D
:102970005C00002020010020FEF716BE30B58FB0AD
:1029800028216846FDF7E7FB14210AA8FDF7E3FBC1
:1029900001210804CDE900100024029402250491CD
:1029A000CDE907504FF4E01009906846FEF770FF3C
:1029B00008B172B6FEE70F20CDE90A054FF480603A
:1029C000CDE90C4002210AA80E94FEF785FE0028EE
:1029D00001D072B6FEE70FB030BD70470148FFF777
:1029E00018BA0000D8000020F0B50268164B174C4A
:1029F000174D4FF08047984205D0B84203D0A0420F
:102A000001D0A84203D122F070064A6832439842AE
:102A100005D0B84203D0A04201D0A84203D122F48D
:102A20004074CA6822434C6922F08002224302604B
:102A30008A68C2620A688262984201D109690163A8
:102A400001214161F0BD0000002C01400004004064
:102A50000008004010B5846842EA032224F47F4451
:102A60000A432243826010BD826822F070020A434A
:102A700042F007018160704710B5036A046A24F0D0
:102A800001040462846924F0F00444EA021423F08F
:102A90000A020A438461026210BD10B5036A046A27
:102AA00024F010040462846923F0A00324F4704429
:102AB00044EA023243EA01118261016210BD000062
:102AC00070B5044600680169E26821F44051114381
:102AD00001612169A0680843616908432168CA68E7
:102AE00041F20C639A430243CA6020684169A269BB
:102AF00021F44071114341611E492068884202D18E
:102B0000FEF790FE01E0FEF77DFE00EBC00101EB59
:102B10000012606864218000B2FBF0F3B3FBF1F3B4
:102B20006FF018067343B2FBF0F5B2FBF0F605EB5D
:102B30008305322303EB0515B5FBF1F5B6FBF1F682
:102B400005F0F00505EB0615B2FBF0F6B2FBF0F070
:102B5000B0FBF1F06FF01802504306EB800003EB7E
:102B60000010B0FBF1F0216800F00F0028448860ED
:102B700070BD0000003801402DE9F041984617462D
:102B80000E460446069D27E0681C25D02DB1FEF7B1
:102B900053FAA0EB0800A8421ED920680C3050E878
:102BA000001F21F4D07140E80012002AF5D12068FE
:102BB000143050E8001F21F0010140E80012002A03
:102BC000F5D1202084F8410084F84200002084F8E8
:102BD00040000320BDE8F0812068006836EA00006C
:102BE00004D00020B842CFD00020F3E70120F9E75D
:102BF000FEE700000FB4054B10B503A9044A029884
:102C000000F0AAF810BC5DF814FB0000DD370008E6
:102C10007C000020490050EAC12018BF04204A0D62
:102C200018BF40F0010040F2FF72B2EB515F08BFE5
:102C300040F00200012808BF052070470907090E6F
:102C4000002804DB00F1E02080F80014704700F059
:102C50000F0000F1E02080F8141D70472DE9F041CD
:102C60004F1E00EBC7010446D1E9000115461E4680
:102C700037F006020DD02A463346FDF7F2FB7F1EE1
:102C800004EBC703D3E90023FDF744FB37F006024A
:102C9000F1D1022F25D0042F13D0062F18BFBDE885
:102CA000F0812A463346FDF7DCFBD4E90A23FDF721
:102CB00031FB2A463346FDF7D4FBD4E90823FDF760
:102CC00029FB2A463346FDF7CCFBD4E90623FDF762
:102CD00021FB2A463346FDF7C4FBD4E90423FDF764
:102CE00019FB2A463346FDF7BCFBD4E90223FDF766
:102CF00011FB2A463346FDF7B4FBD4E90023BDE8B7
:102D0000F041FDF707BB0122FDF7C3BDFDF702BB94
:102D10000022134610461146FDF715BC024A00205A
:102D20001107FDF7B6BD000001FDFFFF02E008C876
:102D3000121F08C1002AFAD170477047002001E035
:102D400001C1121F002AFBD1704700000149086031
:102D500070470000800000202DE9FF4F8DB00F4626
:102D60000546002606E025280BD0DDE90F12904726
:102D70006D1C761C28780028F5D111B03046BDE8CE
:102D8000F08F0024A246A1460122E94900E0044355
:102D900015F8013F203B02FA03F00842F7D12878EA
:102DA0002A2810D06FF02F022878A0F130010929CD
:102DB00014D80AEB8A0102EB410144F0020400EB53
:102DC000010A6D1CF0E701CF5FEA000A03D544F465
:102DD0000054CAF1000A44F002046D1C28782E2821
:102DE00017D115F8010F44F004042A280ED06FF013
:102DF0002F022878A0F1300109290AD809EB8901AE
:102E000002EB410100EB01096D1CF2E757F8049B4E
:102E10006D1C28786C280FD006DC4C2817D0682849
:102E20000DD06A2814D104E0742810D07A280FD16C
:102E30000DE044F400140AE044F4801401E044F48A
:102E400040146978814202D104F580146D1C6D1C18
:102E500028786E281ED00CDC632830D004DC0028D3
:102E60008BD0582811D19FE0642867D069280CD1F5
:102E700064E073282DD004DC6F2872D0702804D150
:102E800094E075286ED078286DD0DDE90F12904758
:102E9000761C4BE1C4F30250022806D0032809D067
:102EA000042801CF09D0066040E101CFF117C0E945
:102EB00000613BE101CF068038E1067036E117F88A
:102EC000040B8DF8000000208DF80100EB46012076
:102ED00003E057F804BB4FF0FF3061074FF00001EB
:102EE00002D40DE008F10101884649450FDA80451A
:102EF000F8DB1BF808100029F4D108E008F1010103
:102F000088468142FADB1BF808100029F6D1DDE97A
:102F10000F23AAEB08008146214600F031F9304426
:102F200000EB080604E0DDE90F121BF8010B9047E7
:102F3000B8F10108F7D221464846F2E00A21C4F36D
:102F400002524FF0000B0891022A04D001CFC117A2
:102F5000032A09D00AE0FF1D27F00707F7E802015E
:102F600008E02CE01EE01FE000B2C117042A01D1E6
:102F700040B2C117021E71F1000206DA0023D0EB45
:102F8000030063EB01012D2202E0220504D52B2270
:102F90008DF82420012203E0E20701D02022F7E788
:102FA000904653E00A210BE0102109E010214FF078
:102FB000000B44F004044FF00809089103E00821D5
:102FC0004FF0000B0891C4F30252022A04D001CF43
:102FD0000021032A06D006E0FF1D27F00707F7E8C7
:102FE000020103E080B2042A00D1C0B24FF0000811
:102FF00022072BD52A78702A07D0DDF820C08CF064
:10300000100C5CEA0B0C05D00EE040228DF8242059
:10301000012208E050EA010306D030238DF8243065
:103020008DF8252002229046089B83F0080353EA7E
:103030000B030BD150EA010201D1620706D5302201
:103040008DF824204FF00108A9F101092A78582AA7
:1030500004D038A20B9208AA0A920BE03AA2F9E730
:103060005B46089AFDF72FFB0B9B9B5C0A9A521E4E
:103070000A92137050EA0102F2D10A98ADEB0000F7
:1030800000F1200B600702D524F4803401E04FF0FA
:103090000109D94502DDA9EB0B0000E0002000EB9F
:1030A0000B0141440890AAEB010AE00306D4DDE9D4
:1030B0000F232146504600F063F806444FF0000904
:1030C00008E009A911F80900DDE90F12904709F19C
:1030D0000109761CC145F4DBE0030CD5DDE90F23C3
:1030E0002146504600F04CF8064404E0DDE90F129A
:1030F00030209047761C0899481E08900029F5DC7E
:1031000008E00A980A990078491C0A91DDE90F1233
:103110009047761CBBF10001ABF1010BF1DC2146BD
:103120005046DDE90F2300F019F806446D1C21E636
:10313000092801003031323334353637383961628D
:103140006364656600000000303132333435363751
:103150003839414243444546000000002DE9F04122
:10316000044600251E461746880404D405E0394667
:103170002020B0476D1C641EF9D52846BDE8F081BB
:103180002DE9F041044600251E469046C80301D5AE
:10319000302700E02027880404D505E04146384662
:1031A000B0476D1C641EF9D52846BDE8F0810000CB
:1031B0002DE9F04D8D4F21F0004A86B005460C46B2
:1031C000BA452ADBAAEB070028430AD08848824583
:1031D00001DC1AD1CDB106B02846BDE8F04DFFF7AD
:1031E00092BD844A844B2846FDF73BF907460E46BC
:1031F000824A834B28462146FDF733F906B03A460A
:103200003346BDE8F04DFDF785B80120FFF79EFD80
:1032100006B0BDE8F04DFFF77BBD7A48824542DA43
:10322000BAF1795F0BDA2846FFF7F4FC042808BFEF
:10323000FFF774FD284606B02146BDE8F08D2A460A
:103240000B461046FDF70DF9834602466E480E46C2
:103250000B4606217844FFF701FD5A463346FDF739
:1032600000F9804669488A465A4633460421784424
:10327000FFF7F4FC5A463346FDF7F3F800223B46CD
:10328000FDF748F802460B4640465146FDF75BF90C
:103290002A462346FDF7E5F806B02A462346BDE850
:1032A000F04DFDF737B8284624F0004100223D4696
:1032B0003B46FDF7D3F84FF0FF32FDF7EAFA06463A
:1032C000024653480F460B4606217844FFF7C6FCDA
:1032D00032463B46FDF7C5F8CDE900014D48324680
:1032E0003B4604217844FFF7B9FC32463B46FDF7E4
:1032F000B8F800222B46FDF70DF8834602913046C0
:10330000394600F0B9FA804643480D46504517DC6F
:10331000DDE900015A46029BFDF715F942462B46AE
:10332000FDF79FF842462B46FCF7F4FF0122FDF71C
:10333000B0FA304A304BFDF78EF8304A304B4CE053
:103340004FF0000A52460B464046FCF7E3FFCDE93A
:10335000031052462B4610461946FDF782F83246B6
:103360003B46FDF77BF8DDE90332FDF7ECF8064656
:103370000F46DDE900015A46029BFDF7E4F883465B
:103380000091012230463946FDF783FA194A1A4B5B
:10339000FDF764F806460F46012240462946FDF730
:1033A00078FA5A46009BFDF75CF832463B46FDF73B
:1033B00052F806460F46012250462946FDF769FAA3
:1033C0000E4DDFF858802A464346FDF747F832464F
:1033D0003B46FDF743F82A464346FDF73FF8002CED
:1033E000D8BF81F0004106B0BDE8F08D0000F03F8D
:1033F0000000F07F075C143326A6913C182D44543E
:10340000FB21F93F0000E03F98060000AE060000F7
:1034100022060000380600003333EF3FFB21E93F6E
:103420002DE9F84F04460D4621F000400091734904
:10343000814211DC7249884201DC06D12CB1204660
:103440002946BDE8F84FFFF75EBC6E48002DCCBFA3
:103450006D496E49BDE8F88F6D49814211DD6D49B6
:103460008142D8BF4FF0FF366DDD20462946FFF779
:10347000D1FB042808BFFFF751FC20462946BDE8D0
:10348000F88F6549654F25F00045814233DD644979
:10349000814219DD002632464FF0804320462946FE
:1034A000FCF738FF80468A46012220462946FDF770
:1034B000F0F900223B46FCF7CEFF42465346FDF7AB
:1034C00042F804460D463EE001260022BA463B463D
:1034D00020462946FCF71EFF80460F460022534631
:1034E00020462946FCF7B7FF42463B46FDF72BF83E
:1034F00004460D4627E04B4981421BDDDFF828A139
:1035000002260022534620462946FCF7AAFF002245
:103510003B46FCF7FFFE80460F46002253462046FE
:103520002946FCF798FF42463B46FDF70CF8044657
:103530000D4608E0032622462B4600203B49FDF7B6
:1035400002F804460D4622462B4610461946FCF763
:1035500088FF8B46824602460B46FCF782FF0746F1
:103560000246334888460B4606217844FFF776FB2F
:1035700052465B46FCF775FF82462E488B463A461C
:10358000434605217844FFF769FB3A464346FCF77A
:1035900068FF02460B46002E504659460CDAFCF7EF
:1035A000B9FE22462B46FCF75CFF01B022462B46B3
:1035B000BDE8F04FFCF752BFFCF7ACFE22462B46AD
:1035C000FCF74FFF1C4A7A4402EBC603D3E9002301
:1035D000FCF741FF22462B46FCF73DFF174A7A4491
:1035E00002EBC603D3E90023FCF738FF009A002A58
:1035F000B8BF81F00041BDE8F88F00000000104422
:103600000000F07F182D4454FB21F93FFB21F9BF46
:103610000000DC3F0000203E0000F33F0000F03FD0
:103620000000E63F008003400000F83F0000F0BFCC
:103630003A040000F8030000960300005E03000057
:103640002DE9F04D9446CCF1000423F000464CEAFD
:103650000404594F46EAD4749A46884621F0004241
:10366000BC4206D8454240EA050442EAD474BC4252
:1036700004D9BDE8F04D6246FFF748BBAAF14055BA
:10368000A5F17F6555EA0C040BD0022404EAAA7464
:103690004A4DDFF82CE144EAD87452EA000B04D01A
:1036A0000CE0BDE8F04DFFF7BBBE002C14BF012CB1
:1036B000BDE8F08D022C30D0032C32D056EA0C0B32
:1036C0000AD0BE4220D1BA4209D126F0804622F06B
:1036D00080423346114617E000291ADB25E0DFF867
:1036E000E4B0FB44002C04BFDBE90001BDE8F08D31
:1036F000012C02BFDBE9000181F00041BDE8F08D43
:10370000022C0AD0032C0CD0BA4212D1B8F1000F0F
:103710000BDA2A482C49BDE8F08D28462B49BDE834
:10372000F08D28467146BDE8F08D24482849BDE853
:10373000F08D921B12153C2AC4BF204F244E10DC82
:10374000BAF1000FBEBF12F13C0F00273E4608DB66
:103750006246FCF7F8FE21F00041FFF761FE0746E4
:103760000E4694B1012C08BF86F000460DD0194AD0
:10377000194B022C3846314615D0FCF76CFE2A4610
:10378000BDE8F04D114BFCF766BE002213463846EB
:103790003146FDF7E7F804BF0220FFF7D7FA3846B5
:1037A0003146BDE8F08DFCF756FE2A46BDE8F04DE7
:1037B000064BFCF753BE00000000F07F182D445468
:1037C000FB2109C0F2020000FB21F9BFFB210940E7
:1037D000FB21F93F075C143326A6A13C38B504460B
:1037E0008DF800004FF6FF73012269460248FEF78C
:1037F00049FC204638BD0000200100202DE9F041A1
:103800008846044601690068FCF7B0FC6060054624
:103810006169FCF7ABFC01462846FCF731FDE0602E
:10382000A768064639464046FCF7F2FC3146FCF7ED
:10383000F5FC3946FCF79AFCA06031464FF07E500B
:10384000FCF7E6FC2946FCF7E9FC2060BDE8F081C6
:10385000FDF7B2FEFFF792F8FEF738FFFEF754FFD0
:10386000FEF772FFFEF7A6FFFEF77AFE0148FEF7AD
:1038700035FAFEE7D80000202DE9F04106460F4654
:10388000FDF71EF8041E0D4618BF0120284320F046
:103890000040C0F17F6000F1E040C00F0ED0301C4E
:1038A00018BF0120384320F00040C0F17F6000F1D4
:1038B000E040C00F04BF0120FFF748FA2046294628
:1038C000BDE8F081010202030405060708090A0B9E
:1038D0000C0D0E0F1010000000000000000001028F
:1038E00003040607080900000000010203040000A9
:1038F000555555555555C53F7D6FEB0312D6D4BF71
:103900005544880E55C1C93F3B8F68B52882A4BF76
:1039100088B20175E0EF493F09F7FD0DE13D023F37
:103920004B2D8A1C273A03C0C88A599CE52A0040BF
:1039300059018D1B6C06E6BF82922EB1C5B8B33F0C
:103940004FBB610567ACDD3F182D4454FB21E93FB7
:103950009BF681D20B73EF3F182D4454FB21F93FA6
:10396000E2652F227F2B7A3C075C143326A6813C2C
:10397000BDCBF07A8807703C075C143326A6913CD7
:10398000C4EB98999999C9BF711623FEC671BCBF43
:103990006D9A74AFF2B0B3BF9AFDDE522DDEADBFAB
:1039A0002F6C6A2C44B4A2BF0D5555555555D53FC3
:1039B000FF8300922449C23F6E204CC5CD45B73FDE
:1039C000513DD0A0660DB13FEB0D76244B7BA93F56
:1039D00011DA22E33AAD903F000000000000000041
:1039E000003A000800000020840000002C2D000890
:1039F000843A000884000020140500003C2D0008D3
:103A00000100000010000000000000000024F4008D
:103A1000740100200AD7A33C000000000000000051
:103A2000000000006F12833A0C020B3F0AD7A33C40
:103A30000000000000000000000000006F12833A48
:103A40000C020B3F0AD7A33C00000000000000005E
:103A5000000000006F12833A0C020B3F00000000D0
:103A60000000003F17B7D138000000000000803F81
:103A70000000000000000000000000000000000046
:043A80000000000042
:04000005080000ED02
:00000001FF
